{
  "contractName": "ToDoFactory",
  "abi": [
    {
      "anonymous": false,
      "inputs": [
        {
          "indexed": false,
          "name": "id",
          "type": "uint256"
        },
        {
          "indexed": false,
          "name": "text",
          "type": "string"
        }
      ],
      "name": "ToDoAdded",
      "type": "event"
    },
    {
      "constant": false,
      "inputs": [
        {
          "name": "_text",
          "type": "string"
        }
      ],
      "name": "add",
      "outputs": [
        {
          "name": "",
          "type": "uint256"
        }
      ],
      "payable": false,
      "stateMutability": "nonpayable",
      "type": "function"
    },
    {
      "constant": false,
      "inputs": [
        {
          "name": "_id",
          "type": "uint256"
        },
        {
          "name": "_undo",
          "type": "bool"
        }
      ],
      "name": "complete",
      "outputs": [],
      "payable": false,
      "stateMutability": "nonpayable",
      "type": "function"
    },
    {
      "constant": true,
      "inputs": [],
      "name": "getMyToDos",
      "outputs": [
        {
          "name": "",
          "type": "string"
        },
        {
          "name": "",
          "type": "string"
        },
        {
          "name": "",
          "type": "string"
        },
        {
          "name": "",
          "type": "string"
        },
        {
          "name": "",
          "type": "string"
        }
      ],
      "payable": false,
      "stateMutability": "view",
      "type": "function"
    }
  ],
  "bytecode": "0x608060405234801561001057600080fd5b506108e2806100206000396000f300608060405260043610610057576000357c0100000000000000000000000000000000000000000000000000000000900463ffffffff1680630ed0b84b1461005c578063b0c8f9dc14610095578063e06ba14814610112575b600080fd5b34801561006857600080fd5b5061009360048036038101908080359060200190929190803515159060200190929190505050610352565b005b3480156100a157600080fd5b506100fc600480360381019080803590602001908201803590602001908080601f0160208091040260200160405190810160405280939291908181526020018383808284378201915050505050509192919290505050610454565b6040518082815260200191505060405180910390f35b34801561011e57600080fd5b5061012761054d565b60405180806020018060200180602001806020018060200186810386528b818151815260200191508051906020019080838360005b8381101561017757808201518184015260208101905061015c565b50505050905090810190601f1680156101a45780820380516001836020036101000a031916815260200191505b5086810385528a818151815260200191508051906020019080838360005b838110156101dd5780820151818401526020810190506101c2565b50505050905090810190601f16801561020a5780820380516001836020036101000a031916815260200191505b50868103845289818151815260200191508051906020019080838360005b83811015610243578082015181840152602081019050610228565b50505050905090810190601f1680156102705780820380516001836020036101000a031916815260200191505b50868103835288818151815260200191508051906020019080838360005b838110156102a957808201518184015260208101905061028e565b50505050905090810190601f1680156102d65780820380516001836020036101000a031916815260200191505b50868103825287818151815260200191508051906020019080838360005b8381101561030f5780820151818401526020810190506102f4565b50505050905090810190601f16801561033c5780820380516001836020036101000a031916815260200191505b509a505050505050505050505060405180910390f35b3373ffffffffffffffffffffffffffffffffffffffff1660008381548110151561037857fe5b906000526020600020906003020160000160009054906101000a900473ffffffffffffffffffffffffffffffffffffffff1673ffffffffffffffffffffffffffffffffffffffff161415156103cc57600080fd5b60011515811515141561041657600080838154811015156103e957fe5b906000526020600020906003020160020160006101000a81548160ff021916908315150217905550610450565b600160008381548110151561042757fe5b906000526020600020906003020160020160006101000a81548160ff0219169083151502179055505b5050565b600080600160006060604051908101604052803373ffffffffffffffffffffffffffffffffffffffff168152602001868152602001600015158152509080600181540180825580915050906001820390600052602060002090600302016000909192909190915060008201518160000160006101000a81548173ffffffffffffffffffffffffffffffffffffffff021916908373ffffffffffffffffffffffffffffffffffffffff160217905550602082015181600101908051906020019061051e9291906107af565b5060408201518160020160006101000a81548160ff021916908315150217905550505003905080915050919050565b606080606080606061055d61082f565b6000610567610857565b600091505b60058210156107285760008281548110151561058457fe5b9060005260206000209060030201606060405190810160405290816000820160009054906101000a900473ffffffffffffffffffffffffffffffffffffffff1673ffffffffffffffffffffffffffffffffffffffff1673ffffffffffffffffffffffffffffffffffffffff168152602001600182018054600181600116156101000203166002900480601f01602080910402602001604051908101604052809291908181526020018280546001816001161561010002031660029004801561068d5780601f106106625761010080835404028352916020019161068d565b820191906000526020600020905b81548152906001019060200180831161067057829003601f168201915b505050505081526020016002820160009054906101000a900460ff16151515158152505090503373ffffffffffffffffffffffffffffffffffffffff16816000015173ffffffffffffffffffffffffffffffffffffffff161480156106fa57506000151581604001511515145b1561071b578060200151838360058110151561071257fe5b60200201819052505b818060010192505061056c565b82600060058110151561073757fe5b602002015183600160058110151561074b57fe5b602002015184600260058110151561075f57fe5b602002015185600360058110151561077357fe5b602002015186600460058110151561078757fe5b6020020151849450839350829250819150809050975097509750975097505050509091929394565b828054600181600116156101000203166002900490600052602060002090601f016020900481019282601f106107f057805160ff191683800117855561081e565b8280016001018555821561081e579182015b8281111561081d578251825591602001919060010190610802565b5b50905061082b9190610891565b5090565b60a0604051908101604052806005905b606081526020019060019003908161083f5790505090565b606060405190810160405280600073ffffffffffffffffffffffffffffffffffffffff168152602001606081526020016000151581525090565b6108b391905b808211156108af576000816000905550600101610897565b5090565b905600a165627a7a72305820ea2778468537a6c5753685bf4d37c8fcdfd8150a30ddf938bf7faf2de2c0ae3f0029",
  "source": "pragma solidity ^0.4.17;\r\n\r\ncontract ToDoFactory {\r\n\r\n    event ToDoAdded(uint id, string text);\r\n\r\n    struct ToDo {\r\n        address user;\r\n        string text;\r\n        bool done;\r\n    }\r\n\r\n    ToDo[] todos;\r\n\r\n    function add(string _text) public returns (uint) {\r\n        uint id = todos.push(ToDo(msg.sender, _text, false)) - 1;\r\n        return id;\r\n    }\r\n\r\n    function complete(uint _id, bool _undo) public {\r\n        require(todos[_id].user == msg.sender);\r\n        if (_undo == true) {\r\n            todos[_id].done = false;\r\n        }\r\n        else {\r\n            todos[_id].done = true;\r\n        }\r\n    }\r\n\r\n\r\n\r\n    function getMyToDos() public view returns (string,string,string,string,string) {\r\n        string[5] memory out;\r\n        for (uint i = 0; i < 5; i++) {\r\n            ToDo memory current = todos[i];\r\n\r\n            if (current.user == msg.sender && current.done == false) {\r\n                out[i] = current.text;\r\n            }\r\n        }\r\n        return (out[0],out[1],out[2],out[3],out[4]);\r\n    }\r\n}\r\n",
  "sourcePath": "C:\\www\\testing\\eth-todo\\contracts\\ToDoFactory.sol",
  "compiler": {
    "name": "solc",
    "version": "0.4.23+commit.124ca40d.Emscripten.clang"
  },
  "schemaVersion": "2.0.0",
  "updatedAt": "2018-05-17T21:14:36.318Z"
}