{
  "contractName": "ToDoFactory",
  "abi": [
    {
      "anonymous": false,
      "inputs": [
        {
          "indexed": false,
          "name": "id",
          "type": "uint256"
        },
        {
          "indexed": false,
          "name": "text",
          "type": "string"
        }
      ],
      "name": "ToDoAdded",
      "type": "event"
    },
    {
      "constant": false,
      "inputs": [
        {
          "name": "_text",
          "type": "string"
        }
      ],
      "name": "add",
      "outputs": [
        {
          "name": "",
          "type": "uint256"
        }
      ],
      "payable": false,
      "stateMutability": "nonpayable",
      "type": "function"
    },
    {
      "constant": false,
      "inputs": [
        {
          "name": "_undo",
          "type": "bool"
        }
      ],
      "name": "complete",
      "outputs": [],
      "payable": false,
      "stateMutability": "nonpayable",
      "type": "function"
    },
    {
      "constant": true,
      "inputs": [],
      "name": "getMyToDos",
      "outputs": [
        {
          "name": "",
          "type": "string"
        }
      ],
      "payable": false,
      "stateMutability": "view",
      "type": "function"
    }
  ],
  "bytecode": "0x608060405234801561001057600080fd5b5061050c806100206000396000f300608060405260043610610057576000357c0100000000000000000000000000000000000000000000000000000000900463ffffffff168063b0c8f9dc1461005c578063e06ba148146100d9578063f44f0b5f14610169575b600080fd5b34801561006857600080fd5b506100c3600480360381019080803590602001908201803590602001908080601f0160208091040260200160405190810160405280939291908181526020018383808284378201915050505050509192919290505050610198565b6040518082815260200191505060405180910390f35b3480156100e557600080fd5b506100ee610236565b6040518080602001828103825283818151815260200191508051906020019080838360005b8381101561012e578082015181840152602081019050610113565b50505050905090810190601f16801561015b5780820380516001836020036101000a031916815260200191505b509250505060405180910390f35b34801561017557600080fd5b50610196600480360381019080803515159060200190929190505050610354565b005b6000604080519081016040528083815260200160001515815250600160003373ffffffffffffffffffffffffffffffffffffffff1673ffffffffffffffffffffffffffffffffffffffff168152602001908152602001600020600082015181600001908051906020019061020d92919061041f565b5060208201518160010160006101000a81548160ff021916908315150217905550905050919050565b606061024061049f565b600160003373ffffffffffffffffffffffffffffffffffffffff1673ffffffffffffffffffffffffffffffffffffffff168152602001908152602001600020604080519081016040529081600082018054600181600116156101000203166002900480601f0160208091040260200160405190810160405280929190818152602001828054600181600116156101000203166002900480156103235780601f106102f857610100808354040283529160200191610323565b820191906000526020600020905b81548152906001019060200180831161030657829003601f168201915b505050505081526020016001820160009054906101000a900460ff1615151515815250509050806000015191505090565b6001151581151514156103c1576000600160003373ffffffffffffffffffffffffffffffffffffffff1673ffffffffffffffffffffffffffffffffffffffff16815260200190815260200160002060010160006101000a81548160ff02191690831515021790555061041c565b60018060003373ffffffffffffffffffffffffffffffffffffffff1673ffffffffffffffffffffffffffffffffffffffff16815260200190815260200160002060010160006101000a81548160ff0219169083151502179055505b50565b828054600181600116156101000203166002900490600052602060002090601f016020900481019282601f1061046057805160ff191683800117855561048e565b8280016001018555821561048e579182015b8281111561048d578251825591602001919060010190610472565b5b50905061049b91906104bb565b5090565b6040805190810160405280606081526020016000151581525090565b6104dd91905b808211156104d95760008160009055506001016104c1565b5090565b905600a165627a7a7230582060de5f6d3d6572ca63eb83ffec3824a0ea7a66d2c3a86e94a08e39e0a905d1ae0029",
  "source": "pragma solidity ^0.4.17;\r\n\r\ncontract ToDoFactory {\r\n\r\n    event ToDoAdded(uint id, string text);\r\n\r\n    struct ToDo {\r\n        string text;\r\n        bool done;\r\n    }\r\n\r\n    ToDo[] todos;\r\n    mapping(address => ToDo) userTodos;\r\n\r\n    function add(string _text) public returns (uint) {\r\n        userTodos[msg.sender] = ToDo(_text, false);\r\n    }\r\n\r\n    function complete(bool _undo) public {\r\n        if (_undo == true) {\r\n            userTodos[msg.sender].done = false;\r\n        }\r\n        else {\r\n            userTodos[msg.sender].done = true;\r\n        }\r\n    }\r\n\r\n    function getMyToDos() public view returns (string) {\r\n        ToDo memory todo =  userTodos[msg.sender];\r\n        return (todo.text);\r\n    }\r\n}\r\n",
  "sourcePath": "F:\\www\\testing\\eth-todo\\contracts\\ToDoFactory.sol",
  "compiler": {
    "name": "solc",
    "version": "0.4.24+commit.e67f0147.Emscripten.clang"
  },
  "schemaVersion": "2.0.0",
  "updatedAt": "2018-05-27T09:51:20.400Z"
}