{
  "contractName": "ToDoFactory",
  "abi": [
    {
      "anonymous": false,
      "inputs": [
        {
          "indexed": false,
          "name": "id",
          "type": "uint256"
        },
        {
          "indexed": false,
          "name": "text",
          "type": "string"
        }
      ],
      "name": "ToDoAdded",
      "type": "event"
    },
    {
      "constant": false,
      "inputs": [
        {
          "name": "_text",
          "type": "string"
        }
      ],
      "name": "add",
      "outputs": [],
      "payable": false,
      "stateMutability": "nonpayable",
      "type": "function"
    },
    {
      "constant": false,
      "inputs": [
        {
          "name": "_id",
          "type": "uint256"
        },
        {
          "name": "_undo",
          "type": "bool"
        }
      ],
      "name": "complete",
      "outputs": [],
      "payable": false,
      "stateMutability": "nonpayable",
      "type": "function"
    },
    {
      "constant": true,
      "inputs": [],
      "name": "getMyToDos",
      "outputs": [
        {
          "name": "",
          "type": "uint256[]"
        }
      ],
      "payable": false,
      "stateMutability": "view",
      "type": "function"
    }
  ],
  "bytecode": "0x608060405234801561001057600080fd5b50610767806100206000396000f300608060405260043610610057576000357c0100000000000000000000000000000000000000000000000000000000900463ffffffff1680630ed0b84b1461005c578063b0c8f9dc14610095578063e06ba148146100fe575b600080fd5b34801561006857600080fd5b506100936004803603810190808035906020019092919080351515906020019092919050505061016a565b005b3480156100a157600080fd5b506100fc600480360381019080803590602001908201803590602001908080601f016020809104026020016040519081016040528093929190818152602001838380828437820191505050505050919291929050505061026c565b005b34801561010a57600080fd5b50610113610400565b6040518080602001828103825283818151815260200191508051906020019060200280838360005b8381101561015657808201518184015260208101905061013b565b505050509050019250505060405180910390f35b3373ffffffffffffffffffffffffffffffffffffffff1660008381548110151561019057fe5b906000526020600020906003020160000160009054906101000a900473ffffffffffffffffffffffffffffffffffffffff1673ffffffffffffffffffffffffffffffffffffffff161415156101e457600080fd5b60011515811515141561022e576000808381548110151561020157fe5b906000526020600020906003020160020160006101000a81548160ff021916908315150217905550610268565b600160008381548110151561023f57fe5b906000526020600020906003020160020160006101000a81548160ff0219169083151502179055505b5050565b6000600160006060604051908101604052803373ffffffffffffffffffffffffffffffffffffffff168152602001858152602001600015158152509080600181540180825580915050906001820390600052602060002090600302016000909192909190915060008201518160000160006101000a81548173ffffffffffffffffffffffffffffffffffffffff021916908373ffffffffffffffffffffffffffffffffffffffff160217905550602082015181600101908051906020019061033592919061065c565b5060408201518160020160006101000a81548160ff0219169083151502179055505050039050336001600083815260200190815260200160002060006101000a81548173ffffffffffffffffffffffffffffffffffffffff021916908373ffffffffffffffffffffffffffffffffffffffff160217905550600260003373ffffffffffffffffffffffffffffffffffffffff1673ffffffffffffffffffffffffffffffffffffffff168152602001908152602001600020600081548092919060010191905055505050565b60608060008061040e6106dc565b600260003373ffffffffffffffffffffffffffffffffffffffff1673ffffffffffffffffffffffffffffffffffffffff1681526020019081526020016000205460405190808252806020026020018201604052801561047c5781602001602082028038833980820191505090505b50935060009250600091505b600080549050821015610652576000828154811015156104a457fe5b9060005260206000209060030201606060405190810160405290816000820160009054906101000a900473ffffffffffffffffffffffffffffffffffffffff1673ffffffffffffffffffffffffffffffffffffffff1673ffffffffffffffffffffffffffffffffffffffff168152602001600182018054600181600116156101000203166002900480601f0160208091040260200160405190810160405280929190818152602001828054600181600116156101000203166002900480156105ad5780601f10610582576101008083540402835291602001916105ad565b820191906000526020600020905b81548152906001019060200180831161059057829003601f168201915b505050505081526020016002820160009054906101000a900460ff16151515158152505090503373ffffffffffffffffffffffffffffffffffffffff16816000015173ffffffffffffffffffffffffffffffffffffffff1614801561061a57506000151581604001511515145b156106455781848481518110151561062e57fe5b906020019060200201818152505082806001019350505b8180600101925050610488565b8394505050505090565b828054600181600116156101000203166002900490600052602060002090601f016020900481019282601f1061069d57805160ff19168380011785556106cb565b828001600101855582156106cb579182015b828111156106ca5782518255916020019190600101906106af565b5b5090506106d89190610716565b5090565b606060405190810160405280600073ffffffffffffffffffffffffffffffffffffffff168152602001606081526020016000151581525090565b61073891905b8082111561073457600081600090555060010161071c565b5090565b905600a165627a7a72305820c91fe35f214496d1a3a7722c704b3e036752eeae8b4e7ac3a1331f42856f0d1f0029",
  "source": "pragma solidity ^0.4.17;\r\n\r\ncontract ToDoFactory {\r\n\r\n    event ToDoAdded(uint id, string text);\r\n\r\n    struct ToDo {\r\n        address user;\r\n        string text;\r\n        bool done;\r\n    }\r\n\r\n    ToDo[] todos;\r\n    mapping(uint => address) todoOwner;\r\n    mapping(address => uint) ownerTodoCount;\r\n\r\n    function add(string _text) public {\r\n        uint id = todos.push(ToDo(msg.sender, _text, false)) - 1;\r\n        todoOwner[id] = msg.sender;\r\n        ownerTodoCount[msg.sender]++;\r\n    }\r\n\r\n    function complete(uint _id, bool _undo) public {\r\n        require(todos[_id].user == msg.sender);\r\n        if (_undo == true) {\r\n            todos[_id].done = false;\r\n        }\r\n        else {\r\n            todos[_id].done = true;\r\n        }\r\n    }\r\n\r\n    function getMyToDos() public view returns (uint[]) {\r\n        uint [] memory out = new uint[](ownerTodoCount[msg.sender]);\r\n        uint count = 0;\r\n        for (uint i = 0; i < todos.length; i++) {\r\n            ToDo memory current = todos[i];\r\n\r\n            if (current.user == msg.sender && current.done == false) {\r\n                out[count] = i;\r\n                count++;\r\n            }\r\n        }\r\n        return out;\r\n    }\r\n}\r\n",
  "sourcePath": "C:\\www\\testing\\eth-todo\\contracts\\ToDoFactory.sol",
  "compiler": {
    "name": "solc",
    "version": "0.4.23+commit.124ca40d.Emscripten.clang"
  },
  "schemaVersion": "2.0.0",
  "updatedAt": "2018-06-04T06:44:28.032Z"
}