{
  "contractName": "ToDoFactory",
  "abi": [
    {
      "anonymous": false,
      "inputs": [
        {
          "indexed": false,
          "name": "id",
          "type": "uint256"
        },
        {
          "indexed": false,
          "name": "text",
          "type": "string"
        }
      ],
      "name": "ToDoAdded",
      "type": "event"
    },
    {
      "constant": false,
      "inputs": [
        {
          "name": "_text",
          "type": "string"
        }
      ],
      "name": "add",
      "outputs": [],
      "payable": false,
      "stateMutability": "nonpayable",
      "type": "function"
    },
    {
      "constant": false,
      "inputs": [
        {
          "name": "_id",
          "type": "uint256"
        },
        {
          "name": "_undo",
          "type": "bool"
        }
      ],
      "name": "complete",
      "outputs": [],
      "payable": false,
      "stateMutability": "nonpayable",
      "type": "function"
    },
    {
      "constant": true,
      "inputs": [
        {
          "name": "id",
          "type": "uint256"
        }
      ],
      "name": "getById",
      "outputs": [
        {
          "name": "",
          "type": "string"
        }
      ],
      "payable": false,
      "stateMutability": "view",
      "type": "function"
    },
    {
      "constant": true,
      "inputs": [],
      "name": "getMyToDos",
      "outputs": [
        {
          "name": "",
          "type": "uint256[]"
        }
      ],
      "payable": false,
      "stateMutability": "view",
      "type": "function"
    }
  ],
  "bytecode": "0x608060405234801561001057600080fd5b506108b1806100206000396000f300608060405260043610610062576000357c0100000000000000000000000000000000000000000000000000000000900463ffffffff1680630ed0b84b14610067578063b0c8f9dc146100a0578063e06ba14814610109578063f4f4d23714610175575b600080fd5b34801561007357600080fd5b5061009e6004803603810190808035906020019092919080351515906020019092919050505061021b565b005b3480156100ac57600080fd5b50610107600480360381019080803590602001908201803590602001908080601f0160208091040260200160405190810160405280939291908181526020018383808284378201915050505050509192919290505050610362565b005b34801561011557600080fd5b5061011e610492565b6040518080602001828103825283818151815260200191508051906020019060200280838360005b83811015610161578082015181840152602081019050610146565b505050509050019250505060405180910390f35b34801561018157600080fd5b506101a0600480360381019080803590602001909291905050506106c6565b6040518080602001828103825283818151815260200191508051906020019080838360005b838110156101e05780820151818401526020810190506101c5565b50505050905090810190601f16801561020d5780820380516001836020036101000a031916815260200191505b509250505060405180910390f35b813373ffffffffffffffffffffffffffffffffffffffff166001600083815260200190815260200160002060009054906101000a900473ffffffffffffffffffffffffffffffffffffffff1673ffffffffffffffffffffffffffffffffffffffff1614151561028957600080fd5b6001151582151514156102d357600080848154811015156102a657fe5b906000526020600020906002020160010160006101000a81548160ff02191690831515021790555061035d565b60016000848154811015156102e457fe5b906000526020600020906002020160010160006101000a81548160ff021916908315150217905550600260003373ffffffffffffffffffffffffffffffffffffffff1673ffffffffffffffffffffffffffffffffffffffff16815260200190815260200160002060008154809291906001900391905055505b505050565b6000600160006040805190810160405280858152602001600015158152509080600181540180825580915050906001820390600052602060002090600202016000909192909190915060008201518160000190805190602001906103c79291906107c4565b5060208201518160010160006101000a81548160ff0219169083151502179055505050039050336001600083815260200190815260200160002060006101000a81548173ffffffffffffffffffffffffffffffffffffffff021916908373ffffffffffffffffffffffffffffffffffffffff160217905550600260003373ffffffffffffffffffffffffffffffffffffffff1673ffffffffffffffffffffffffffffffffffffffff168152602001908152602001600020600081548092919060010191905055505050565b6060806000806104a0610844565b600260003373ffffffffffffffffffffffffffffffffffffffff1673ffffffffffffffffffffffffffffffffffffffff1681526020019081526020016000205460405190808252806020026020018201604052801561050e5781602001602082028038833980820191505090505b50935060009250600091505b6000805490508210156106bc5760008281548110151561053657fe5b9060005260206000209060020201604080519081016040529081600082018054600181600116156101000203166002900480601f0160208091040260200160405190810160405280929190818152602001828054600181600116156101000203166002900480156105e85780601f106105bd576101008083540402835291602001916105e8565b820191906000526020600020905b8154815290600101906020018083116105cb57829003601f168201915b505050505081526020016001820160009054906101000a900460ff16151515158152505090503373ffffffffffffffffffffffffffffffffffffffff166001600084815260200190815260200160002060009054906101000a900473ffffffffffffffffffffffffffffffffffffffff1673ffffffffffffffffffffffffffffffffffffffff1614801561068457506000151581602001511515145b156106af5781848481518110151561069857fe5b906020019060200201818152505082806001019350505b818060010192505061051a565b8394505050505090565b60606106d0610844565b6000838154811015156106df57fe5b9060005260206000209060020201604080519081016040529081600082018054600181600116156101000203166002900480601f0160208091040260200160405190810160405280929190818152602001828054600181600116156101000203166002900480156107915780601f1061076657610100808354040283529160200191610791565b820191906000526020600020905b81548152906001019060200180831161077457829003601f168201915b505050505081526020016001820160009054906101000a900460ff16151515158152505090508060000151915050919050565b828054600181600116156101000203166002900490600052602060002090601f016020900481019282601f1061080557805160ff1916838001178555610833565b82800160010185558215610833579182015b82811115610832578251825591602001919060010190610817565b5b5090506108409190610860565b5090565b6040805190810160405280606081526020016000151581525090565b61088291905b8082111561087e576000816000905550600101610866565b5090565b905600a165627a7a7230582011c398bb6d05d85c13bf73b147e5181716311ba32b9b09bab7b1312fb45de5780029",
  "source": "pragma solidity ^0.4.17;\r\n\r\ncontract ToDoFactory {\r\n\r\n    event ToDoAdded(uint id, string text);\r\n\r\n    struct ToDo {\r\n        string text;\r\n        bool done;\r\n    }\r\n\r\n    ToDo[] todos;\r\n    mapping(uint => address) todoOwner;\r\n    mapping(address => uint) ownerTodoCount;\r\n\r\n    modifier ownerOf(uint _id) {\r\n        require(todoOwner[_id] == msg.sender);\r\n        _;\r\n    }\r\n\r\n    function add(string _text) public {\r\n        uint id = todos.push(ToDo(_text, false)) - 1;\r\n        todoOwner[id] = msg.sender;\r\n        ownerTodoCount[msg.sender]++;\r\n    }\r\n\r\n    function complete(uint _id, bool _undo) public ownerOf(_id) {\r\n        if (_undo == true) {\r\n            todos[_id].done = false;\r\n        }\r\n        else {\r\n            todos[_id].done = true;\r\n            ownerTodoCount[msg.sender]--;\r\n        }\r\n\r\n    }\r\n\r\n    function getById(uint id) public view returns (string){\r\n        ToDo memory todo = todos[id];\r\n        return todo.text;\r\n    }\r\n\r\n    function getMyToDos() public view returns (uint[]) {\r\n        uint [] memory out = new uint[](ownerTodoCount[msg.sender]);\r\n        uint count = 0;\r\n        for (uint i = 0; i < todos.length; i++) {\r\n            ToDo memory current = todos[i];\r\n\r\n            if (todoOwner[i] == msg.sender && current.done == false) {\r\n                out[count] = i;\r\n                count++;\r\n            }\r\n        }\r\n        return out;\r\n    }\r\n}\r\n",
  "sourcePath": "C:\\www\\testing\\eth-todo\\contracts\\ToDoFactory.sol",
  "compiler": {
    "name": "solc",
    "version": "0.4.23+commit.124ca40d.Emscripten.clang"
  },
  "schemaVersion": "2.0.0",
  "updatedAt": "2018-06-21T08:37:53.856Z"
}